:02000000F72FD8
:100AEE0083161F149F101F119F11051485100511D9
:100AFE0005128512080083161F088F3960389F0073
:100B0E0083129F171F13F3309F051F1408008316BF
:100B1E000F088F3960388F008F110F148312180849
:100B2E00E1390A38980083160F1908009A2D87307C
:100B3E0083129205FC30920512158316051183124D
:100B4E001508F0390C389500CF3095059301FF301C
:100B5E00831692000800F401F501701CBC2D72087A
:100B6E00F4070318F50A7308F50701300310F20DA8
:100B7E00F30DFF3E031DBD2D01300310F10CF00CE3
:100B8E00FF3E031DC42D71087004031DB42D75089E
:100B9E00F101F1077408F001F0070800F401F50106
:100BAE0083129F1483129F1CDE2D0000D92D8316F5
:100BBE001E08F200F3017208F4007308F5008312A8
:100BCE001E08F200F3017208F300F2017208F40736
:100BDE000318F50A7308F5077508F101F107740893
:100BEE00F001F00708008E2577259E2582258312B9
:100BFE000516851685146400D52571088312C20169
:100C0E00C2077008C101C1074208F701F707410882
:100C1E00F601F60766268312C0004008C700470893
:100C2E00732783122E08C601C6072D08C501C507F6
:100C3E004608F101F1074508F001F007B726022E2C
:100C4E000030FC000030FB000030FA000030F900EC
:100C5E00701C452E7408F907750803110318013E20
:100C6E00031DFA07760803110318013E031DFB0747
:100C7E00770803110318013E031DFC070130F8002D
:100C8E000310F40DF50DF60DF70DF80B472E013090
:100C9E000310F30CF20CF10CF00CFF3E031D4F2E63
:100CAE007308720471047004031D2F2E7C08F30068
:100CBE007B08F2007A08F1007908F0000800013094
:100CCE00770219300319760203186F2EF5300800DB
:100CDE0003307702463003197602031C782E7130EA
:100CEE0008007708FB01FB077608FA01FA070F30B8
:100CFE00F0000030F1007B08F301F3077A08F201EF
:100D0E00F207B2257108FB01FB077008FA01FA071A
:100D1E00FF30F000FF30F1007B08F301F3077A0893
:100D2E00F201F207B2257108FB01FB077008FA0108
:100D3E00FA077230FA070318FB0A4D30FB077B08DF
:100D4E00F9007A08F80006300310F90CF80CFF3E93
:100D5E00031DAB2E7808FA007908FB007A0808000C
:100D6E0083121308F200F3010310F20DF30D0310BA
:100D7E00F20DF30D150E03397207F400003003184F
:100D8E0001307307F5007408F8007508F90079084A
:100D9E00F701F7077808F601F6070130C3070318C5
:100DAE00C40A0030C407003044020630031943025F
:100DBE00031CFF2EC301C40171087902031DE92E25
:100DCE00700878020318F12E0130F6070318F70A9F
:100DDE000030F70779087102031DF72E78087002AC
:100DEE000318FF2E0130F6020030031CF703F70242
:100DFE007608F200F20E15087206CF3972069500CB
:100E0E007708F3007608F2000310F30CF20C0310CF
:100E1E00F30CF20C72089300080000308312AB0042
:100E2E000030AA000030A9000030A80023082204D8
:100E3E002104200403196A2FAC01AC0AA31B352F21
:100E4E000130FD000310A00DA10DA20DA30DFD0B91
:100E5E00292F0130FD007D08AC07252F0130FD0044
:100E6E000310A80DA90DAA0DAB0DFD0B372F2308EE
:100E7E002702031D4C2F22082602031D4C2F21088A
:100E8E002502031D4C2F20082402031C5D2F200871
:100E9E00A4022108031C210FA5022208031C220F05
:100EAE00A6022308031C230FA702281401300310E7
:100EBE00A30CA20CA10CA00CFF3E031D5E2F013053
:100ECE00AC02031D352F2B08A3002A08A200290807
:100EDE00A1002808A00008008312BB003B08AF0049
:100EEE00B001B101B2013208B6003108B5003008C8
:100EFE00B4002F08B300A5303B0203188E2F00302C
:100F0E00BA000030B9000030B8000030D72FA5303D
:100F1E003B02031CD82F4630AF00E830B000FF3044
:100F2E00B100FF30B2000030A3000030A20000304C
:100F3E00A1006430A0003608F3003508F200340832
:100F4E00F1003308F0000030F7000030F6000E30EC
:100F5E00F500FC30F400272673088312A7007208F0
:100F6E00A6007108A5007008A4001427831220089B
:100F7E00AF0721080318210FC52FC62FB00722086F
:100F8E000318220FCB2FCC2FB10723080318230AE7
:100F9E00B2073208BA003108B9003008B8002F087D
:100FAE00B70000303A02031DE62F00303902031D50
:100FBE00E62F04303802031DE62F00303702031CE3
:100FCE00F02F0030BA000030B9000330B800FF3007
:100FDE00B7003808AE01AE073708AD01AD070800FF
:100FEE00C101C201C301C401C501C601C70183010C
:020FFE00FA2DCA
:02400E00DCFFD5
:00000001FF
