:02000000F72FD8
:100CBE0083161F149F101F119F1105148510051107
:100CCE0005128512080083161F088F3960389F00A1
:100CDE0083129F171F13F3309F051F1408008316EE
:100CEE000F088F3960388F008F110F148312180878
:100CFE00E1390A38980083160F190800822E8730C2
:100D0E0083129205FC30920512158316051183127B
:100D1E001508F0390C389500CF3095059301FF304A
:100D2E00831692000800F401F501701CA42E7208BF
:100D3E00F4070318F50A7308F50701300310F20DD6
:100D4E00F30DFF3E031DA52E01300310F10CF00C28
:100D5E00FF3E031DAC2E71087004031D9C2E7508FA
:100D6E00F101F1077408F001F0070800F401F50134
:100D7E0083129F1483129F1CC62E0000C12E831651
:100D8E001E08F200F3017208F4007308F5008312D6
:100D9E001E08F200F3017208F300F2017208F40764
:100DAE000318F50A7308F5077508F101F1077408C1
:100DBE00F001F007080076265F2686266A26831243
:100DCE000516851685146400BD2671088312A101CF
:100DDE00A1077008A001A0072108F701F707200856
:100DEE00F601F6074927FD007D088312A6002608A6
:100DFE000F2777088312A501A5077608A401A4077B
:100E0E002508F101F1072408F001F0079A27EA2ED0
:100E1E00FC00A5307C020318172FFA01FB01372FB7
:100E2E00A5307C02031C332FCA307C020318332FEB
:100E3E007C08F800F9017808F0007908F1000C3010
:100E4E00F2000030F3009A2670088E3EFA00710808
:100E5E000318013EFA3E362FFF30FA000330FB0036
:100E6E0004307B02003003197A02031C422FFF303C
:100E7E00FA000330FB007B08F701F7077A08F6014A
:100E8E00F6070800013077021930031976020318AD
:100E9E00522FF530080003307702463003197602E0
:100EAE00031C5B2F713008007708FB01FB077608E7
:100EBE00FA01FA070F30F0000030F1007B08F30161
:100ECE00F3077A08F201F2079A267108FB01FB0775
:100EDE007008FA01FA07FF30F000FF30F1007B08CE
:100EEE00F301F3077A08F201F2079A267108FB0163
:100EFE00FB077008FA01FA077230FA070318FB0AAB
:100F0E004D30FB077B08F9007A08F8000630031015
:100F1E00F90CF80CFF3E031D8E2F7808FA007908A5
:100F2E00FB007A08080083121308F200F301031085
:100F3E00F20DF30D0310F20DF30D150E03397207BA
:100F4E00F4000030031801307307F5007408F80040
:100F5E007508F9007908F701F7077808F601F60722
:100F6E000130A2070318A30A0030A30700302302A2
:100F7E00153003192202031CE22FA201A3017108EE
:100F8E007902031DCC2F700878020318D42F01307C
:100F9E00F6070318F70A0030F70779087102031DE8
:100FAE00DA2F780870020318E22F0130F6020030B3
:100FBE00031CF703F7027608F200F20E150872060C
:100FCE00CF39720695007708F3007608F200031009
:100FDE00F30CF20C0310F30CF20C720893000800E1
:100FEE00A001A101A201A301A401A501A6018301F3
:020FFE00E22EE1
:02400E00DCFFD5
:00000001FF
